:03000000020329CF
:0C032900787FE4F6D8FD75812002010900
:10010900C201C200E4F510F511F508F509750A32C6
:10011900F50BC2027135519551E371007119D2AFD6
:1001290030000EC200E4F50AFB7A00790B111D8F2D
:10013900083001ECC201050A51309202E50AC39464
:1001490032500330020E750A32713F71507149E421
:10015900F5FC80CCE50914601C146032240270554A
:10016900E50824FE600904704C716211058046712E
:100179006A11058040E50814600914600B240270B7
:100189002F80057509018030713F71668016E50879
:1001990014600D14601524027016713F716E80048D
:1001A900713F716E1105E4F509800D75090280082A
:1001B9007509038003850809AD0BAF095169212928
:10023000E4C203FDE5E830E52A53E8DFAFBEEFFE98
:10024000ACBDECFBEBFFC3949BEE940050030D8020
:1002500006E4FDC2037157EDC3940A40067D0AD23D
:0802600003717A43E810A203C8
:010268002273
:06001D008B0C8A0D890E18
:10002300D3E5119424E51094135005750F032103B0
:10003300D3E5119424E51094134010D3E51194ED06
:10004300E51094175005750F0201E3D3E51194ED04
:10005300E5109417401AD3E51194A6E510942350A4
:100063000F750F02C374A69511FF74239510804575
:10007300D3E51194A6E51094234018D3E5119421F8
:10008300E5109424500DE4F50FAB0CAA0DA90E3125
:10009300C98070D3E5119421E51094244029D3E558
:1000A3001194DAE510942F501E750F01E51124DF2A
:1000B300FFE51034DBFE7C007D0C31DBAB0CAA0DBD
:1000C300A90EEF31C9803CD3E51194DAE510942FE2
:1000D300401AD3E51194A3E5109434500F750F0122
:1000E300AB0CAA0DA90E74FF31C98017D3E5119487
:1000F300A3E5109434400C750F03AB0CAA0DA90EA5
:05010300E431C9AF0F5B
:0101080022D4
:10026900EF14601114601424027016713F717271D9
:1002790076E4FD801411177176800E715E717280BB
:0C02890008713F71507149E4FD8DFC22AA
:1000050075CDEC75CCDB75C804E5C830E7FBE4F5C8
:02001500C822FF
:0200030041BDFD
:1002BD00C0E0C0D075D000C005C007AF8CEFAD8ACF
:1002CD00F510EDF511D200758A00758C00D007D0B0
:0602DD0005D0D0D0E03294
:02001B00617E04
:03037E00D2013277
:1003190075BB0875BA1175BCF875D10875E88022E6
:1003000053D9DFE4F5D8F5D975DA42F5F9F5FAF500
:09031000FBF5FC43E201D2DE2200
:1002950075F1F07580FFE4F5A475D4FF75F2FE7570
:1002A50090AB75A5FC75D5DF75E404438801D2B81C
:0802B500D2A8F5E175E2402238
:0A03350053D9BF75B283E4F5A92285
:1002E300E4F58CF58AF58DF58B758919758E11D228
:0D02F300BBD2AB43885175CADB75CBEC2242
:0A033F0043D58043D52043D50822A2
:0400170053D5DF22BC
:04035E0053D5F7225A
:070349005390EF5390FB22DB
:0703500043902043900822B6
:040362005390EF22A3
:04036600439020227E
:04036A005390FB228F
:04036E00439008228E
:070357005390BF4390802288
:040372004390102282
:04037600439004228A
:04037A00439040224A
:1001C900BB010689828A83F0225002F722BBFE0115
:0201D900F3220F
:1001DB00BC000BBE0029EF8DF084FFADF022E4CC08
:1001EB00F875F008EF2FFFEE33FEEC33FCEE9DECD1
:1001FB00984005FCEE9DFE0FD5F0E9E4CEFD22ED17
:10020B00F8F5F0EE8420D21CFEADF075F008EF2F60
:10021B00FFED33FD4007985006D5F0F222C398FD51
:05022B000FD5F0EA22EE
:00000001FF
